:100000000C946C000C9494000C9494000C940908CB
:100010000C9494000C9494000C9494000C94940010
:100020000C9494000C9494000C9494000C94940000
:100030000C9494000C9494000C9494000C949400F0
:100040000C9467070C9494000C94D7070C94B10798
:100050000C9494000C9494000C9494000C949400D0
:100060000C9494000C94940005A84CCDB2D44EB9D5
:100070003836A9020C50B9918688083CA6AAAA2A4B
:10008000BE000000803F00000000240027002A007E
:1000900000000000250028002B00040404040404D0
:1000A0000404020202020202030303030303010227
:1000B00004081020408001020408102001020408F6
:1000C00010200000000800020100000304070000E7
:1000D000000000000000130A11241FBECFEFD8E07B
:1000E000DEBFCDBF11E0A0E0B1E0EAE0FDE102C07B
:1000F00005900D92AE3FB107D9F722E0AEEFB1E027
:1001000001C01D92A93DB207E1F710E0CCE6D0E0B6
:1001100004C02197FE010E94510DCB36D107C9F7CB
:100120000E94A0080C94830E0C94000090E0FC0147
:10013000EE53FF4F2491FC01E255FF4F3491FC0137
:10014000E656FF4FE491EE23C9F0222339F0233025
:1001500001F1A8F4213019F1223029F1F0E0EE0F7D
:10016000FF1FE057FF4FA591B4918FB7F894EC9122
:10017000611126C030953E233C938FBF08952730F0
:10018000A9F02830C9F0243049F7809180008F7D94
:1001900003C0809180008F7780938000DFCF84B58B
:1001A0008F7784BDDBCF84B58F7DFBCF8091B0008E
:1001B0008F778093B000D2CF8091B0008F7DF9CF40
:1001C0003E2BDACFCF93DF9390E0FC01E255FF4F57
:1001D000249186569F4FFC0184918823D1F090E0B2
:1001E000880F991FFC01EA57FF4FA591B491FC01BC
:1001F000E057FF4FC591D49161110EC09FB7F8949D
:100200008C91E22FE0958E238C932881E223E88362
:100210009FBFDF91CF9108958FB7F894EC91E22BB7
:10022000EC938FBFF6CF3FB7F89480910A0290917C
:100230000B02A0910C02B0910D0226B5A89B05C03F
:100240002F3F19F00196A11DB11D3FBFBA2FA92F55
:10025000982F8827BC01CD01620F711D811D911D52
:1002600042E0660F771F881F991F4A95D1F70895BE
:100270008F929F92AF92BF92CF92DF92EF92FF92B6
:100280006B017C010E9413014B015C01C114D1047C
:10029000E104F104B9F00E941301681979098A098F
:1002A0009B09683E73408105910580F321E0C21AE5
:1002B000D108E108F10888EE880E83E0981EA11CA1
:1002C000B11CE4CFFF90EF90DF90CF90BF90AF9044
:1002D0009F908F900895AF92BF92CF92DF92EF924E
:1002E000FF920F931F93CF93DF936C017B018B01E0
:1002F000040F151FEB015E01AE18BF08C017D10730
:1003000059F06991D601ED91FC910190F081E02DB9
:10031000C6010995892B79F7C501DF91CF911F910E
:100320000F91FF90EF90DF90CF90BF90AF90089526
:10033000FC01538D448D252F30E0842F90E0821BEB
:10034000930B541710F0CF96089501970895FC0170
:10035000918D828D981761F0A28DAE0FBF2FB11DC8
:100360005D968C91928D9F5F9F73928F90E0089520
:100370008FEF9FEF0895FC01918D828D981731F0DA
:10038000828DE80FF11D858D90E008958FEF9FEF2E
:100390000895FC01918D228D892F90E0805C9F4F04
:1003A000821B91098F739927089588E392E00E9438
:1003B000C90121E0892B09F420E0822F089580E013
:1003C00090E0892B29F00E94D50181110C94000046
:1003D0000895FC01A48DA80FB92FB11DA35ABF4FDA
:1003E0002C91848D90E001968F739927848FA68934
:1003F000B7892C93A089B1898C91837080648C9388
:10040000938D848D981306C00288F389E02D808136
:100410008F7D80830895EF92FF920F931F93CF9368
:10042000DF93EC0181E0888F9B8D8C8D98131AC02F
:10043000E889F989808185FF15C09FB7F894EE8916
:10044000FF896083E889F989808183708064808373
:100450009FBF81E090E0DF91CF911F910F91FF90BE
:10046000EF900895F62E0B8D10E00F5F1F4F0F7366
:100470001127E02E8C8D8E110CC00FB607FCFACF21
:10048000E889F989808185FFF5CFCE010E94E901D5
:10049000F1CFEB8DEC0FFD2FF11DE35AFF4FF082F2
:1004A0009FB7F8940B8FEA89FB8980818062CFCF58
:1004B000CF93DF93EC01888D8823B9F0AA89BB899B
:1004C000E889F9898C9185FD03C0808186FD0DC086
:1004D0000FB607FCF7CF8C9185FFF2CF808185FFA7
:1004E000EDCFCE010E94E901E9CFDF91CF910895D0
:1004F0008F929F92AF92BF92CF92DF92EF92FF9234
:10050000CF93DF93FC018281938168177907D8F537
:100510004A01AA24BB24C32ED42EE52EFF24DC2DB1
:10052000C22F8085982D882391F0C82FD0E0C89DD8
:10053000D001C99DB00DD89DB00D11249B2F8C9D6D
:1005400060011124DD2D829F90011124C32FA68507
:10055000218532858385A81321C0AB01440F551F27
:10056000640F751F620F731FA385A60FB72FB11DF0
:100570009C93A485A60FB72FB11DDC938585680FCA
:10058000711DFB01C083DF91CF91FF90EF90DF9051
:10059000CF90BF90AF909F908F900895660F771F78
:1005A000660F771F620F731FA60FB72FB11D1C9226
:1005B000DBCFCF92DF92EF92FF920F931F93CF93F7
:1005C000DF93CDB7DEB729970FB6F894DEBF0FBE25
:1005D000CDBF6B0100910702109108022091120219
:1005E000222309F4A5C020E03AEF40E050E081303A
:1005F000910509F4ABC0009709F0CBC020E030E0D2
:10060000A90170E060E0C8010E94780220E03AEFA2
:1006100040E050E061E070E0C8010E947802D8013B
:1006200019968D919C91892B09F473C00E94130136
:10063000F801C784D088E188F2886C157D058E05A5
:100640009F0520F46787708B818B928BF801C7849C
:10065000D088E188F2886C197D098E099F096C3277
:1006600071408105910510F3F894D80114968D918D
:100670009C9115979A8389831996ED91FC917F013E
:10068000BFEFEB1AFB0A80818987F801908103880C
:10069000F489E02DD80155968C91992309F48DC0E9
:1006A0009081982B98879081809589238F838F8163
:1006B0008C8388E08B8358856F8149853B812C81B1
:1006C00089819A81D701508347FD252F3A95208350
:1006D000262F39F0441F00C000006083000000C0D6
:1006E000F2CF38E04D9160830000019761F7D801A7
:1006F0005496FC93EE93539749873B832C839A83BC
:10070000898378940E941301F8016787708B818B2D
:10071000928B29960FB6F894DEBF0FBECDBFDF9146
:10072000CF911F910F91FF90EF90DF90CF900895A0
:1007300081309105A1F40D2C000CEE08FF08A601F4
:10074000332722272C293D294E295F2970E060E0BC
:10075000C8010E94780220E030E0A9015BCF009739
:10076000C1F420E030E0A90170E060E0C8010E941F
:1007700078020D2C000CEE08FF08A6013327222773
:10078000FE2CED2CDC2CCC242C293D294E295F2974
:1007900041CF039709F043CF0D2C000CEE08FF0862
:1007A0007601DD24CC24A701960170E060E0C80149
:1007B0000E947802A70196012DCF9081982B9887EF
:1007C0009081809589238F838F818E8388E08D83AC
:1007D00058856F8149853D812E8189819A81D70114
:1007E000508347FD252F00C000C0208300C000C0FB
:1007F00000C000C000C060830000262F3A9541F081
:10080000441F000000C000C000C000C000C0E8CF0E
:1008100038E04D9100C0608300C0019709F7D8010E
:100820005496FC93EE93539749873D832E8367CF6D
:100830000F931F93CF93DF936AE070E00E941B0D2C
:100840008B01D0E0C0E080910602882339F010923D
:100850000602DF91CF911F910F91089560911201CF
:1008600070911301072E000C880B990B0E94380120
:1008700021960C171D0739F7ECCFFC0101900020E1
:10088000E9F73197AF01481B590BBC0188E392E0AF
:100890000C946B018F929F92AF92BF920F931F9314
:1008A000CF93DF93CDB7DEB7A1970FB6F894DEBF35
:1008B0000FBECDBF19A2423008F44AE08E010F5D91
:1008C0001F4F842E912CB12CA12CA50194010E94C4
:1008D0002F0DE62FB901CA01EA30F4F4E05DD8012A
:1008E000EE938D01232B242B252B79F790E080E0CC
:1008F000109719F0CD010E943D04A1960FB6F8940F
:10090000DEBF0FBECDBFDF91CF911F910F91BF9082
:10091000AF909F908F900895E95CE1CFCF92DF92E6
:10092000EF92FF92CF93DF936B017C016DE288E33E
:1009300092E00E940B02EC0166277727CB016C192D
:100940007D098E099F094AE00E944A048C0F9D1F71
:10095000DF91CF91FF90EF90DF90CF900895CF93EC
:10096000DF930E943D04EC018EE391E00E943D0480
:100970008C0F9D1FDF91CF910895BC01990F880BBB
:10098000990B97FD0C948E044AE00C944A042F9224
:100990003F924F925F926F927F928F929F92AF920F
:1009A000BF92CF92DF92EF92FF920F931F93CF935C
:1009B000DF9308E112E046E3842E41E0942E7801B3
:1009C000412C512C3201D12CC12CB12CA12CD0E0C6
:1009D000C0E0F40180818E3008F08E508770806412
:1009E00080937C0080917A00806480937A0080916B
:1009F0007A0086FDFCCF8091780090917900813D4E
:100A0000F7E09F0708F013C1A80EB91E2FEFC21A16
:100A1000D20A61E070E080E090E00E943801219607
:100A2000CA30D105B1F642E0C416D1040CF414C1A9
:100A3000C501B6010E94070DF70171836083F2E0E2
:100A4000EF0EF11C2FEF421A520A620A720A42E0BC
:100A5000840E911C54E0451651046104710409F0A0
:100A6000B2CF209118023091190222303105E0F006
:100A700080911A0290911B02FC01E21BF30B339749
:100A800098F020911C0230911D02A901481B590BBE
:100A90004330510548F080911E0290911F02821B45
:100AA000930B039708F0DCC01092150180E3A82E89
:100AB00082E0B82E98E2C92E92E0D92E20E2E22EF2
:100AC00022E0F22E33E0232E312CF801C191D19196
:100AD0008F01BE0190E080E00E94530B2B013C018E
:100AE0002FEF3FEF4FE75FE70E947A0C81110BC0B9
:100AF0002FEF3FEF4FE75FE7C301B2010E94AD0A5E
:100B000018160CF4B1C0F50180809180C80DD91D74
:100B1000F601808191818C0F9D1FB1010E94070D0C
:100B200090E080E00E94530B28E939E949E15EE357
:100B30000E94050C2B013C01F7016081718190E05E
:100B400080E00E94530B2AE939E949E55FE30E94FE
:100B5000050C9B01AC01C301B2010E94410A0E9435
:100B6000240BF70171836083F801329771836083EE
:100B7000F60191828082F50171836083F2E0AF0E0D
:100B8000B11C22E0C20ED11C42E0E40EF11C80E256
:100B900092E08017910709F098CF8DE691E00E94CE
:100BA0003D04609118027091190290E080E04AE0E3
:100BB0000E944A0482E791E00E943D0460911A027B
:100BC00070911B0290E080E04AE00E944A0489E7AD
:100BD00091E00E943D0460911C0270911D0290E022
:100BE00080E04AE00E944A0480E891E00E943D04CF
:100BF00060911E0270911F0290E080E04AE00E9426
:100C00004A048EE391E0DF91CF911F910F91FF9005
:100C1000EF90DF90CF90BF90AF909F908F907F909C
:100C20006F905F904F903F902F900C943D0481E423
:100C300091E00E943D044AE0C301B2010E944A04CF
:100C40008EE391E00E943D04219761E070E080E036
:100C500090E00E943801DDCEF70111821082EFCEC4
:100C600081E08093150122CF82E691E00E94AF04DB
:100C700085CFCF92DF92EF92FF92C12CD12C7601DB
:100C80000E94C7044AE0C701B6010E944A048EE3ED
:100C900091E00E943D048FEFC81AD80AE80AF80ACA
:100CA00085E5C816D104E104F10451F7FF90EF90F7
:100CB000DF90CF9008954F925F926F927F928F92C4
:100CC0009F92AF92BF92CF92DF92EF92FF920F93DB
:100CD0001F93CF93DF938C014B01C1E0C0931401AC
:100CE0008AE090E0909313018093120180911702A3
:100CF000811104C00E943906C093170288E1C82EF2
:100D000082E0D82EE8019EE2E92E91E0F92E03E17F
:100D100012E02E0148E0440E511C23E0A22EB12C1B
:100D2000F601219131916F0189919991F7017080BC
:100D30006180F2E0EF0EF11CAC014550510924171F
:100D4000350708F485C0465F5F4F4217530708F424
:100D50007FC060E0872D0E949600872D962D0E940F
:100D6000BD0487E891E00E94AF0481E0F801808330
:100D7000B0921301A09212010F5F1F4F4C165D0637
:100D800079F660911401C1E06C278EE00E94960014
:100D900080911302882309F47EC080911402882375
:100DA00009F479C080911502882309F474C08091F8
:100DB0001602882309F46FC0C093120280911202B8
:100DC00081116CC0C8ECD0E02FB7F89460910E028E
:100DD00070910F0280911002909111022FBF0E941A
:100DE000530B20E030E04AE754E40E94B20A2BEDB6
:100DF0003FE049E450E40E94050C0E94720C20E0A0
:100E000030E040E85FE30E94410A20E030E04FEF2D
:100E100052E40E94050C0E94240B70E0C4010E9461
:100E2000D9028AE090E00E941804219769F6DF91C8
:100E3000CF911F910F91FF90EF90DF90CF90BF90D7
:100E4000AF909F908F907F906F905F904F9008959C
:100E50002817390778F061E0872D0E949600872DCA
:100E6000962D0E94BD0483E991E00E94AF04F80131
:100E700010827ECF60E0872D0E949600872D962DF0
:100E80000E94BD048CE991E00E94AF04F801108239
:100E90001092140171CF1092120290CF6FEF70E098
:100EA000C4010E94D90288EB9BE0DF91CF911F9192
:100EB0000F91FF90EF90DF90CF90BF90AF909F90F9
:100EC0008F907F906F905F904F900C9418041F92BA
:100ED0000F920FB60F9211242F933F938F939F93EE
:100EE000AF93BF9380910E0290910F02A0911002D8
:100EF000B09111023091090223E0230F2D3758F5EC
:100F00000196A11DB11D2093090280930E029093BA
:100F10000F02A0931002B093110280910A029091E7
:100F20000B02A0910C02B0910D020196A11DB11D02
:100F300080930A0290930B02A0930C02B0930D02CF
:100F4000BF91AF919F918F913F912F910F900FBEC5
:100F50000F901F90189526E8230F0296A11DB11D32
:100F6000D2CF1F920F920FB60F9211242F933F935F
:100F70004F935F936F937F938F939F93AF93BF93A1
:100F8000EF93FF9388E392E00E94E901FF91EF91D4
:100F9000BF91AF919F918F917F916F915F914F9191
:100FA0003F912F910F900FBE0F901F9018951F9299
:100FB0000F920FB60F9211242F938F939F93EF935D
:100FC000FF93E0914802F09149028081E0914E0246
:100FD000F0914F0282FD1BC09081809151028F5F82
:100FE0008F7320915202821741F0E0915102F0E09C
:100FF000E85CFD4F958F80935102FF91EF919F9197
:101000008F912F910F900FBE0F901F901895808198
:10101000F4CF1F920F920FB60F9211242F933F938C
:101020004F935F936F937F938F939F93AF93BF93F0
:10103000EF93FF93809100012FB7882309F466C0D6
:10104000F89480910E0290910F02A0911002B0913D
:1010500011022FBF8093020290930302A093040217
:10106000B093050288EC91E00E94AF041092FE015B
:101070001092FF01109200021092010210920001E2
:101080008091FE019091FF01A0910002B0910102B8
:101090004091020250910302609104027091050296
:1010A000841B950BA60BB70B893E9340A105B10598
:1010B000E4F087EE91E00E94AF048091110191E08D
:1010C000892780931101909306021092FE011092DD
:1010D000FF0110920002109201021092020210927F
:1010E00003021092040210920502FF91EF91BF914A
:1010F000AF919F918F917F916F915F914F913F91B0
:101100002F910F900FBE0F901F901895F89480911B
:101110000E0290910F02A0911002B09111022FBF08
:101120008093FE019093FF01A0930002B09301020F
:1011300087ED91E00E94AF0481E080930001A0CF91
:10114000789484B5826084BD84B5816084BD85B5A2
:10115000826085BD85B5816085BD80916E008160AE
:1011600080936E0010928100809181008260809354
:101170008100809181008160809381008091800056
:101180008160809380008091B10084608093B10081
:101190008091B00081608093B00080917A0084607B
:1011A00080937A0080917A00826080937A008091A7
:1011B0007A00816080937A0080917A0080688093C1
:1011C0007A001092C10004B603FE0EC084B7877F78
:1011D00084BF0FB6F894A8958091600088618093D1
:1011E0006000109260000FBEE0914802F091490249
:1011F00002E00083E0914402F09145021082E09108
:101200004602F09147028AE1808310925002E091F9
:101210004C02F0914D0216E01083E0914A02F091E9
:101220004B02808180618083E0914A02F0914B0201
:10123000808188608083E0914A02F0914B02808136
:1012400080688083E0914A02F0914B0280818F7D1B
:1012500080830E94390686E190E00E94570DEC01E0
:10126000198218861F86188A198A1A8A81E08E8741
:101270008B871C860D87888386E090E09D838C8316
:101280000E94570D9A878987009709F49DC0FC0139
:1012900011921A95E9F782E090E09B838A8383E0BC
:1012A00090E09F838E838981882341F061E083E011
:1012B0000E94E20060E083E00E949600EDE9F0E029
:1012C000E491F0E0EE0FFF1FE057FF4F85919491FE
:1012D0009C8B8B8BE1EBF0E0E491ED8BD0930802DB
:1012E000C09307028E819F8197FD07C061E00E9435
:1012F000E20060E08E810E94960081E08983CEE268
:10130000D1E086E3E82E81E0F82E1881229661E094
:10131000812F0E94E20060E0812F0E949600EC166F
:10132000FD0699F761E08EE00E94E20060E08AE04D
:101330000E94E20060E08EE00E94960080916800CA
:1013400081608093680080916B00846080936B0063
:10135000C0E0D0E0A895E0910702F0910802448136
:10136000558170E060E0818592850E947C0E60E08E
:101370008EE00E94960064E670E080E090E00E94BB
:1013800038010E94C70480911501882359F180918A
:10139000110181111EC070E060E089E091E00E94BF
:1013A0005B0684EA91E00E94AF0460E570E080E0B3
:1013B00090E00E943801209769F20E94D5018823AD
:1013C00049F20E940000C6CF1D821C821B821A8235
:1013D00066CF61E070E081E091E00E945B0681EB06
:1013E00091E0E1CF60E08EE00E94960060E088E04E
:1013F0000E94960060E087E00E94960060E086E030
:101400000E94960060E085E00E94960064E670E02D
:1014100083E090E00E94D9028FEB91E00E94AF043C
:1014200010921702C2CFE8E3F2E01382128288EE34
:1014300093E0A0E0B0E084839583A683B78380E245
:1014400091E09183808385EC90E09587848784EC9C
:1014500090E09787868780EC90E0918B808B81EC81
:1014600090E0938B828B82EC90E0958B848B86EC62
:1014700090E0978B868B118E128E138E148E0895AA
:101480005058BB27AA270E94580A0C94CB0B0E94E5
:10149000BD0B38F00E94C40B20F039F49F3F19F4C3
:1014A00026F40C94BA0B0EF4E095E7FB0C94B40B05
:1014B000E92F0E94DC0B58F3BA1762077307840701
:1014C000950720F079F4A6F50C94FE0B0EF4E09548
:1014D0000B2EBA2FA02D0B01B90190010C01CA01EE
:1014E000A0011124FF27591B99F0593F50F4503E99
:1014F00068F11A16F040A22F232F342F4427585F8B
:10150000F3CF469537952795A795F0405395C9F7A2
:101510007EF41F16BA0B620B730B840BBAF091505A
:10152000A1F0FF0FBB1F661F771F881FC2F70EC0F9
:10153000BA0F621F731F841F48F4879577956795CC
:10154000B795F7959E3F08F0B0CF9395880F08F0B8
:101550009927EE0F9795879508950E94900B08F4B0
:1015600081E008950E94C60A0C94CB0B0E94C40B24
:1015700058F00E94BD0B40F029F45F3F29F00C9415
:10158000B40B51110C94FF0B0C94BA0B0E94DC0BA2
:1015900068F39923B1F3552391F3951B550BBB27A2
:1015A000AA2762177307840738F09F5F5F4F220FE7
:1015B000331F441FAA1FA9F335D00E2E3AF0E0E8DE
:1015C00032D091505040E695001CCAF72BD0FE2F28
:1015D00029D0660F771F881FBB1F261737074807BC
:1015E000AB07B0E809F0BB0B802DBF01FF27935874
:1015F0005F4F3AF09E3F510578F00C94B40B0C9479
:10160000FF0B5F3FE4F3983ED4F38695779567959B
:10161000B795F7959F5FC9F7880F911D96958795A8
:1016200097F90895E1E0660F771F881FBB1F6217C7
:1016300073078407BA0720F0621B730B840BBA0B85
:10164000EE1F88F7E09508950E94E40B88F09F57FD
:1016500098F0B92F9927B751B0F0E1F0660F771FD6
:10166000881F991F1AF0BA95C9F714C0B13091F0CC
:101670000E94FE0BB1E008950C94FE0B672F782FAB
:101680008827B85F39F0B93FCCF386957795679591
:10169000B395D9F73EF490958095709561957F4FFD
:1016A0008F4F9F4F0895E89409C097FB3EF49095A3
:1016B0008095709561957F4F8F4F9F4F9923A9F02B
:1016C000F92F96E9BB279395F695879577956795BA
:1016D000B795F111F8CFFAF4BB0F11F460FF1BC0FE
:1016E0006F5F7F4F8F4F9F4F16C0882311F096E991
:1016F00011C0772321F09EE8872F762F05C066233F
:1017000071F096E8862F70E060E02AF09A95660FF7
:10171000771F881FDAF7880F9695879597F90895B0
:10172000990F0008550FAA0BE0E8FEEF16161706F2
:10173000E807F907C0F012161306E407F50798F05A
:10174000621B730B840B950B39F40A2661F0232B73
:10175000242B252B21F408950A2609F4A140A695EF
:101760008FEF811D811D089597F99F6780E870E0D4
:1017700060E008959FEF80EC089500240A94161607
:10178000170618060906089500240A94121613066F
:10179000140605060895092E0394000C11F48823FD
:1017A00052F0BB0F40F4BF2B11F460FF04C06F5F19
:1017B0007F4F8F4F9F4F089557FD9058440F551FEF
:1017C00059F05F3F71F04795880F97FB991F61F0C3
:1017D0009F3F79F087950895121613061406551F3A
:1017E000F2CF4695F1DF08C0161617061806991FA6
:1017F000F1CF86957105610508940895E894BB279B
:1018000066277727CB0197F908950E94180C0C944E
:10181000CB0B0E94BD0B38F00E94C40B20F0952327
:1018200011F00C94B40B0C94BA0B11240C94FF0B14
:101830000E94DC0B70F3959FC1F3950F50E0551F8C
:10184000629FF001729FBB27F00DB11D639FAA2715
:10185000F00DB11DAA1F649F6627B00DA11D661F64
:10186000829F2227B00DA11D621F739FB00DA11D85
:10187000621F839FA00D611D221F749F3327A00D3F
:10188000611D231F849F600D211D822F762F6A2FDB
:1018900011249F5750409AF0F1F088234AF0EE0F40
:1018A000FF1FBB1F661F771F881F91505040A9F76D
:1018B0009E3F510580F00C94B40B0C94FF0B5F3FDE
:1018C000E4F3983ED4F3869577956795B795F795A9
:1018D000E7959F5FC1F7FE2B880F911D9695879521
:1018E00097F908959F930E94810C0F9007FCEE5F7B
:1018F0000C94AA0C0E94900B880B990B08950C94E1
:10190000BA0B0E94E40BD8F3E894E0E0BB279F57A2
:10191000F0F02AED3FE049EC06C0EE0FBB0F661F6A
:10192000771F881F28F0B23A62077307840728F0F0
:10193000B25A620B730B840BE3959A9572F7803859
:1019400030F49A95BB0F661F771F881FD2F7904817
:101950000C94C00CEF93E0FF07C0A2EA2AED3FE031
:1019600049EC5FEB0E94580A0E94CB0B0F90039446
:1019700001FC9058E8E6F0E00C94CC0C9F3F31F06D
:10198000915020F4879577956795B795880F911DAD
:101990009695879597F908959F938F937F936F936B
:1019A000FF93EF939B01AC010E94050CEF91FF9117
:1019B0000E94E00C2F913F914F915F910C94050C88
:1019C000DF93CF931F930F93FF92EF92DF927B01F0
:1019D0008C01689406C0DA2EEF010E94180CFE01FB
:1019E000E894A5912591359145915591A6F3EF0184
:1019F0000E94580AFE019701A801DA9469F7DF9066
:101A0000EF90FF900F911F91CF91DF910895AA1B46
:101A1000BB1B51E107C0AA1FBB1FA617B70710F0D9
:101A2000A61BB70B881F991F5A95A9F7809590950B
:101A3000BC01CD01089597FB072E16F4009407D042
:101A400077FD09D00E94070D07FC05D03EF4909564
:101A500081959F4F0895709561957F4F0895A1E2FC
:101A60001A2EAA1BBB1BFD010DC0AA1FBB1FEE1F18
:101A7000FF1FA217B307E407F50720F0A21BB30B63
:101A8000E40BF50B661F771F881F991F1A9469F7DF
:101A900060957095809590959B01AC01BD01CF013B
:101AA0000895EE0FFF1F0590F491E02D09940F9318
:101AB0001F93CF93DF938230910510F482E090E082
:101AC000E091D702F091D80230E020E0B0E0A0E051
:101AD000309799F42115310509F44AC0281B390BB8
:101AE00024303105D8F58A819B816115710589F112
:101AF000FB0193838283FE0111C0408151810281E9
:101B0000138148175907E0F04817590799F41097BF
:101B100061F012960C93129713961C933296CF0194
:101B2000DF91CF911F910F9108950093D7021093E9
:101B3000D802F4CF2115310551F04217530738F080
:101B4000A901DB019A01BD01DF01F801C1CFEF015D
:101B5000F9CF9093D8028093D702CDCFFE01E20F48
:101B6000F31F819391932250310939832883D7CF72
:101B70002091D5023091D602232B41F420911801F7
:101B8000309119013093D6022093D502209116018D
:101B9000309117012115310541F42DB73EB7409121
:101BA0001A0150911B01241B350BE091D502F091D5
:101BB000D602E217F307A0F42E1B3F0B28173907B4
:101BC00078F0AC014E5F5F4F2417350748F04E0F99
:101BD0005F1F5093D6024093D502819391939FCF7C
:101BE000F0E0E0E09CCFCF93DF930097E9F0FC01B9
:101BF000329713821282A091D702B091D802ED01E0
:101C000030E020E01097A1F420813181820F931FF2
:101C10002091D5023091D6022817390709F061C00A
:101C2000F093D602E093D502DF91CF910895EA01B7
:101C3000CE17DF07E8F54A815B819E01411551050A
:101C4000B1F7E901FB83EA8349915991C40FD51F8C
:101C5000EC17FD0761F4808191810296840F951F36
:101C6000E90199838883828193819B838A83F0E051
:101C7000E0E012968D919C9113970097B9F52D9104
:101C80003C911197CD010296820F931F2091D502AE
:101C90003091D6022817390739F6309751F510924E
:101CA000D8021092D702B093D602A093D502BCCF2F
:101CB000D383C28340815181840F951FC817D907F0
:101CC00061F44E5F5F4F88819981480F591F51839E
:101CD00040838A819B81938382832115310509F09A
:101CE000B0CFF093D802E093D7029ECFFD01DC0184
:101CF000C0CF13821282D7CFDC0101C06D93415057
:0A1D00005040E0F70895F894FFCF7B
:101D0A00011003690373030702B80B70177017A059
:101D1A000F010A0001010000D90280000000000042
:101D2A000B026B0198015802C901A701BB01080007
:101D3A0007000600050013001200110010000D0A2A
:101D4A0000496E76616C696420766F6C74616765B0
:101D5A002072656164696E6720666F722070696EB1
:101D6A00200076696E20697320696E660061203DE5
:101D7A0020002C2062203D20002C2063203D2000E2
:101D8A002C2064203D2000206973206368617267FB
:101D9A006564002069732068696768002069732098
:101DAA006C6F770053746F72616765204D6F64655D
:101DBA00004368617267696E67204D6F64650073DE
:101DCA0074616E6420627900427574746F6E20507B
:101DDA0072657373656400427574746F6E20526520
:101DEA006C6561736564004D6F646520546F676745
:0E1DFA006C652054726967676572656400004D
:00000001FF
